:020000040800F2
:10000000A8040020010100087D160008FB14000868
:10001000791600081B020008A9190008000000005A
:10002000000000000000000000000000AD16000805
:100030001F0200080000000081160008AF1600082B
:100040001B0100081B0100081B0100081B01000820
:100050001B0100081B0100081B0100081B01000810
:100060001B0100081B0100081B0100081B01000800
:100070001B0100081B0100081B0100081B010008F0
:100080001B0100081B0100081B0100081B010008E0
:100090001B0100081B0100081B0100081B010008D0
:1000A0001B0100081B0100081B0100081B010008C0
:1000B0001B0100081B010008451700081B01000870
:1000C0001B0100081B0100081B0100081B010008A0
:1000D0001B0100081B0100081B0100081B01000890
:1000E000210200081B0100081B010008DFF80CD0EA
:1000F00000F072F800480047651C0008A8040020C2
:100100000648804706480047FEE7FEE7FEE7FEE7B1
:10011000FEE7FEE7FEE7FEE7FEE7FEE7431700081F
:10012000ED000008202A04DB203A21FA02F0002129
:10013000704721FA02F3D040C2F1200291400843F7
:1001400019467047D2B201E000F8012B491EFBD2DC
:1001500070470022F6E710B513460A4604461946D2
:10016000FFF7F0FF204610BD421C10F8011B0029CC
:10017000FBD1801A70472DE9F05F054600209246BA
:100180009B4688460646814640241BE02846414659
:1001900047462246FFF7C6FF53465A46C01A9141CA
:1001A00010D311461846224600F028F82D1A67EBA6
:1001B00001084F4622460120002100F01FF817EBEE
:1001C00000094E41201EA4F10104DFDC48463146FF
:1001D0002A464346BDE8F09F064C074D06E0E0681E
:1001E00040F0010394E8070098471034AC42F6D37E
:1001F000FFF780FF481D0008681D0008202A04DB67
:10020000203A00FA02F1002070479140C2F1200329
:1002100020FA03F319439040704700BFFEE7704790
:1002200010B54FF4005000F01BF810BD72B600BFBF
:10023000FEE7000070B5044600F0B6F90646254614
:10024000681C10B104480078054400BF00F0ACF908
:10025000801BA842FAD370BD180000207047000030
:1002600010B5044604480068204020B102480460EC
:100270002046FFF7F3FF10BD140401402DE9F847B5
:100280000346002294466EE14FF0010808FA02F49A
:10029000D1F8008008EA0400A0427DD1DFF8DCA29A
:1002A000D1F80480A8EB0A09D0453AD014DCB8F1A3
:1002B000030F50D009DCB8F1000F31D0B8F1010FB5
:1002C0001CD0B8F1020F49D120E0B8F1110F18D0BD
:1002D000B8F1120F42D11EE0B9F5881F25D006DC17
:1002E000B9F5803F20D0B9F5801F37D11AE0B9F5B4
:1002F000001F18D0B9F5041F30D117E0D1F80CC099
:100300002DE0D1F80C8008F1040C28E0D1F80C8025
:1003100008F1080C23E0D1F80C8008F10C0C1EE069
:1003200000BF00BF00BF00BF00BF00BFD1F8088002
:10033000B8F1000F02D14FF0040C0BE0D1F80880A7
:10034000B8F1010F03D14FF0080C1C6102E04FF02F
:10035000080C5C6103E04FF0000C00E000BF00BF40
:10036000FF2801D8984601E003F104084646FF281B
:1003700002D84FEA820803E0A2F108084FEA880891
:100380004746D6F800804FF00F0909FA07F928EA26
:1003900009080CFA07F900E088E048EA0908C6F8FD
:1003A0000080D1F8048008F08058B8F1805F7DD1DA
:1003B00000BFDFF8CC81D8F8188048F00108DFF8DA
:1003C000C091C9F81880C846D8F8188008F001080C
:1003D000CDF8008000BF00BF4FEAB9384FEA92095C
:1003E00058F829504FEA82784FEA18794FF00F08F1
:1003F00008FA09F825EA0805DFF88881434502D1A3
:100400004FF0000816E0DFF88081434502D14FF03D
:1004100001080FE0DFF87481434502D14FF0020874
:1004200008E0DFF86C81434502D14FF0030801E09A
:100430004FF004084FEA82794FEA197908FA09F86F
:1004400048EA0505DFF84C814FEA920948F829503F
:10045000D1F8048008F48038B8F5803F0AD1DFF87D
:100460003881D8F8008048EA0008DFF82C91C9F8F4
:10047000008009E0DFF82081D8F8008028EA000831
:10048000DFF81491C9F80080D1F8048008F400382E
:10049000B8F5003F10D1DFF8008108F10408D8F862
:1004A000008048EA0008DFF8F09000E05AE009F127
:1004B0000409C9F800800DE0DFF8DC8008F10408C9
:1004C000D8F8008028EA0008DFF8CC9009F1040988
:1004D000C9F80080D1F8048008F48018B8F5801FAE
:1004E0000ED1DFF8B48008F10808D8F8008048EA97
:1004F0000008DFF8A49009F10809C9F800800DE0B0
:10050000DFF8948008F10808D8F8008028EA00088D
:10051000DFF8849009F10809C9F80080D1F8048057
:1005200008F40018B8F5001F0ED1DFF86C8008F150
:100530000C08D8F8008048EA0008DFF85C9009F160
:100540000C09C9F800800DE0DFF84C8008F10C08B8
:10055000D8F8008028EA0008DFF83C9009F10C097F
:10056000C9F80080521CD1F8008028FA02F8B8F1CE
:10057000000F7FF489AEBDE8F8870000000011107D
:100580000010024000080140000C01400010014032
:100590000014014008000140000401400AB101615B
:1005A00001E00B04036170470148006870470000D8
:1005B00010000020034800680349097808440149F5
:1005C00008607047100000201800002010B508488F
:1005D000006840F0100006490860032000F0A8F809
:1005E000002000F007F800F02BF8002010BD0000FC
:1005F0000020024070B504460E4800784FF47A712E
:10060000B1FBF0F00C490968B1FBF0F5284600F0A9
:100610000BFC08B1012070BD102C07D2002221462E
:10062000501E00F047F80548046001E00120F2E7A1
:100630000020F0E7180000201C000020140000201B
:1006400008B500BF1148806940F001000F4988617A
:100650000846806900F00100009000BF00BF00BFA5
:100660000846C06940F08050C8610846C06900F083
:100670008050009000BF00BF00BF0549486820F0CF
:10068000E06040F00070486000BF08BD001002400C
:100690000000014001460846002809DB00F01F0366
:1006A00001229A4043099B0003F1E023C3F8002193
:1006B00000BF70472DE9F05F80460D4616460027C3
:1006C00001F088F9074639462A46334601F007000B
:1006D000C0F1070ABAF1040F02D94FF0040A01E091
:1006E000C0F1070AD14600F1040ABAF1070F02D29D
:1006F0004FF0000A01E0A0F1030AD4464FF0010ACE
:100700000AFA09FAAAF1010A0AEA020A0AFA0CFA32
:100710004FF0010B0BFA0CFBABF1010B0BEA030BD7
:100720004AEA0B042146404601F05CF9BDE8F09F1F
:1007300000BF00F00702064B19684FF6FF0319408F
:10074000044B0B4343EA0221014B196000BF704781
:100750000CED00E00000FA0570B504460D460CB93A
:10076000012070BD5A48006800F00700A8420ED270
:100770005748006820F0070028435549086008469C
:10078000006800F00700A84201D00120E9E72078C6
:1007900000F0020002281DD1207800F00400042897
:1007A00005D14C48406840F4E0604A4948602078F0
:1007B00000F00800082805D14648406840F4605021
:1007C000444948604348406820F0F000A16808436D
:1007D00040494860207800F0010078B36068012843
:1007E00006D13C48006800F4003090B90120B8E719
:1007F0006068022806D13748006800F0007040B9F0
:100800000120AEE73348006800F0020008B901207B
:10081000A7E73048406820F00300616808432D498D
:100820004860FFF7C1FE064609E0FFF7BDFE801BEA
:1008300041F28831884202D9032092E707E0254837
:10084000406800F00C006168B0EB810FEDD12048EA
:10085000006800F00700A8420ED91D48006820F08B
:10086000070028431A4908600846006800F007009E
:10087000A84201D0012074E7207800F00400042889
:1008800007D11448406820F4E060E168084311494A
:100890004860207800F00800082808D10D4840681A
:1008A00020F46050216940EAC1000A49486000F024
:1008B0003FF808494968C1F30311074A515CC84031
:1008C0000649086006480068FFF794FE002048E7E4
:1008D0000020024000100240301D00081C000020D3
:1008E0001400002001480068704700001C00002030
:1008F00000B5FFF7F7FF04494968C1F30221034A35
:10090000515CC84000BD000000100240401D0008BE
:1009100000B5FFF7E7FF04494968C1F3C221034A64
:10092000515CC84000BD000000100240401D00089E
:10093000F0B585B00FF26C0C9CE8E01001A8A0E8BF
:10094000E0101CA52D680095002100220023002442
:100950000020194D696801F00C05F5B1042D02D095
:10096000082D19D101E0154819E001ADC1F3834606
:10097000AC5D01F4803555B10F4D6D68C5F3404550
:100980001DF805200D4D6543B5FBF2F302E00C4D5B
:1009900004FB05F3184602E000BF084800BF00BF93
:1009A00005B0F0BD02030405060708090A0B0C0D8B
:1009B0000E0F1010010200000010024000127A0019
:1009C00000093D00F8B504460CB90120F8BD2078B7
:1009D00000F00100002878D0F848406800F00C00D2
:1009E00004280CD0F548406800F00C00082811D10C
:1009F000F248406800F48030B0F5803F0AD1EF48FB
:100A0000006800F4003000285FD0606800285CD1E6
:100A10000120DBE700BF6068B0F5803F06D1E74802
:100A2000006840F48030E549086028E0606858B903
:100A3000E248006820F48030E04908600846006819
:100A400020F4802008601AE06068B0F5A02F0BD178
:100A5000DA48006840F48020D849086008460068F9
:100A600040F4803008600AE0D448006820F4803008
:100A7000D24908600846006820F48020086000BF62
:100A8000606888B1FFF790FD054606E0FFF78CFD32
:100A9000401B642801D9032098E7C848006800F487
:100AA00000300028F2D010E0FFF77EFD054606E09A
:100AB000FFF77AFD401B642801D9032086E7BF4871
:100AC000006800F400300028F2D1207800F0020025
:100AD000022857D1B948406800F00C0050B1B7481F
:100AE000406800F00C00082818D1B448406800F4B1
:100AF000803098B9B148006800F0020020B1206948
:100B0000012801D0012061E7AC48006820F0F8001E
:100B1000616940EAC100A949086033E02069E8B191
:100B20000120A7490860FFF73FFD054606E0FFF7F3
:100B30003BFD401B022801D9032047E79F4800687E
:100B400000F002000028F2D09C48006820F0F80075
:100B5000616940EAC1009949086013E000209849A2
:100B60000860FFF721FD054606E0FFF71DFD401B6D
:100B7000022801D9032029E79048006800F002000C
:100B80000028F2D1207800F0080008282DD1A069B3
:100B9000B8B101208B490860FFF706FD054606E065
:100BA000FFF702FD401B022801D903200EE783480E
:100BB000406A00F002000028F2D0012000F062FD3F
:100BC00013E000207F490860FFF7EEFC054606E0D1
:100BD000FFF7EAFC401B022801D90320F6E677481C
:100BE000406A00F002000028F2D1207800F00400F2
:100BF000042873D100277148C06900F0805070B993
:100C000000BF6E48C06940F080506C49C86108461A
:100C1000C06900F08050009000BF00BF01276A4803
:100C2000006800F48070B0B96748006840F48070D4
:100C300065490860FFF7B8FC054606E0FFF7B4FC1D
:100C4000401B642801D90320C0E65F48006800F417
:100C500080700028F2D000BFE068012806D1574814
:100C6000006A40F001005549086227E0E06858B981
:100C70005248006A20F00100504908620846006AA4
:100C800020F00400086219E0E06805280BD14B4809
:100C9000006A40F00400494908620846006A40F0D2
:100CA000010008620AE04548006A20F0010043495B
:100CB00008620846006A20F00400086200BFE0688D
:100CC000A0B1FFF771FC054609E0FFF76DFC401B82
:100CD00041F28831884202D9032077E622E0374882
:100CE000006A00F002000028EFD012E0FFF75CFC81
:100CF000054608E0FFF758FC401B41F28831884266
:100D000001D9032062E62D48006A00F002000028A5
:100D1000F0D1012F05D12948C06920F08050274922
:100D2000C86100BFE069C8B32448406800F00C0007
:100D3000082860D0E069022848D1002020490866D0
:100D4000FFF732FC054606E0FFF72EFC401B0228A9
:100D500001D903203AE61948006800F00070002825
:100D6000F2D1206AB0F5803F07D11448406820F4E2
:100D70000030A168084311494860D4E908010843DC
:100D80000E49496821F4741108430C494860012058
:100D90000B490866FFF708FC054607E03DE0FFF752
:100DA00003FC401B022801D903200FE6034800681A
:100DB00000F000700028F2D02FE000000010024088
:100DC000000042428004424200700040002014496A
:100DD0000866FFF7E9FB054606E0FFF7E5FB401B69
:100DE000022801D90320F1E50E48006800F00070E8
:100DF0000028F2D111E0E069012800D1E6E50948B8
:100E0000466806F48031206A814204D106F47011EC
:100E1000606A814201D00120D8E50020D6E50000BB
:100E2000000042420010024070B504462546681E8C
:100E3000B0F1807F01D301200FE0681E4FF0E02168
:100E400048610F214FF0FF3000F0CCFD00204FF043
:100E5000E021886107200861002070BD704770475D
:100E600030B502460B4600BF92F83C00012801D184
:100E7000022030BD012082F83C0000BF022082F831
:100E80003D00106844681068816824F07004186898
:100E9000044310684460104D1068A8420BD01068DD
:100EA000B0F1804F07D00D4D1068A84203D00C4D13
:100EB0001068A84205D121F08001586801431068EC
:100EC0008160012082F83D0000BF002082F83C00D4
:100ED00000BF00BFCDE70000002C0140000400402F
:100EE0000008004010B504460CB9012010BD94F86C
:100EF0003D0028B9002084F83C00204600F026F888
:100F0000022084F83D00211D206800F023FC012010
:100F100084F8460000BF84F83E0001213F200155BF
:100F2000402001554120015500BF00BF012084F839
:100F3000420043200155442001554520015500BF82
:100F4000012084F83D000020D0E7000038B50446B9
:100F50000D492068884215D100BF0C48C06940F097
:100F600004000A49C8610846C06900F00400009006
:100F700000BF00BF002201211E20FFF79BFB1E20A7
:100F8000FFF788FB38BD0000000800400010024059
:100F9000014691F83D00012801D001207047022050
:100FA00081F83D000868C06840F001000B68D86017
:100FB000124B086898420BD00868B0F1804F07D0F8
:100FC0000F4B0868984203D00E4B086898420CD12A
:100FD0000868806800F00702062A0CD008680068DC
:100FE00040F001000B68186005E00868006840F0F8
:100FF00001000B6818600020D0E70000002C0140C1
:10100000000400400008004001460868C06820F065
:1010100001000A68D06000BF0868006A41F211123E
:10102000104050B90868006A9210104028B908684A
:10103000006820F001000A68106000BF012081F8FC
:101040003D00002070472DE9F04104460D4600BFE9
:1010500094F83C00012802D10220BDE8F081012073
:1010600084F83C0000BF022084F83D0020688668B8
:1010700026F0770626F47F46206886602868502888
:1010800033D00CDC202850D004DC00284BD01028B2
:1010900051D149E0302849D040284CD139E060286E
:1010A0002DD0702807D0B0F5805F03D0B0F5005F79
:1010B00041D10DE040E0D5E902136A68206800F0F4
:1010C00083FB2068866846F077062068866033E0F8
:1010D000D5E902136A68206800F076FB2068806812
:1010E00040F480402168886026E0EA6869682068EA
:1010F00000F07EFB5021206800F071FB1CE0EA68E4
:101100006968206800F087FB6021206800F067FBB9
:1011100012E0EA686968206800F06AFB40212068F4
:1011200000F05DFB08E000BF00BF00BF2968206839
:1011300000F055FB00E000BF00BF012084F83D0037
:1011400000BF002084F83C0000BF00BF85E7704767
:1011500010B5044620680069C0F34000D8B120688B
:10116000C068C0F34000B0B16FF0020021680861B0
:10117000012020772068806900F0030018B1204624
:10118000FFF7E5FF05E0204600F0ADF8204600F04F
:10119000ABF80020207720680069C0F38000D8B148
:1011A0002068C068C0F38000B0B16FF0040021680F
:1011B0000861022020772068806900F4407018B12F
:1011C0002046FFF7C4FF05E0204600F08CF82046DB
:1011D00000F08AF80020207720680069C0F3C00082
:1011E000D8B12068C068C0F3C000B0B16FF008008B
:1011F00021680861042020772068C06900F003009E
:1012000018B12046FFF7A3FF05E0204600F06BF879
:10121000204600F069F80020207720680069C0F3BC
:101220000010D8B12068C068C0F30010B0B16FF0F2
:10123000100021680861082020772068C06900F448
:10124000407018B12046FFF782FF05E0204600F00D
:101250004AF8204600F048F800202077206800690E
:1012600000F0010058B12068C06800F0010030B102
:101270006FF0010021680861204600F037F820680F
:101280000069C0F3C01058B12068C068C0F3C01036
:1012900030B16FF08000216808612046FFF7DEFD65
:1012A00020680069C0F3801058B12068C068C0F39E
:1012B000801030B16FF0400021680861204600F0D6
:1012C00041F820680069C0F3401058B12068C06838
:1012D000C0F3401030B16FF0200021680861204653
:1012E000FFF7BDFD10BD70477047000010B5044604
:1012F0000F49206888421AD10E4800F0DFF9B0B1DA
:101300000D48006842F2107188420AD20B4800680A
:10131000401E0A49086008480068401C06490860E9
:1013200002E00748FFF770FE024800F0C4F910BD64
:1013300000080040000000200C00002004000020F5
:1013400020000020704710B504460CB9012010BDE4
:10135000A06900B100E000BF94F8390028B900206E
:1013600084F83800204600F027F8242084F839005B
:101370002068C06820F400502168C860204600F052
:101380005FFA2068006920F49040216808612068B5
:10139000406920F02A00216848612068C06840F454
:1013A00000502168C8600020E063202084F83900E4
:1013B00084F83A000020CAE710B586B00446002041
:1013C000029003900490059014492068884223D12C
:1013D00000BF1348C06940F400301149C861084695
:1013E000C06900F40030019000BF00BF00BF084694
:1013F000806940F0040088610846806900F00400BC
:10140000019000BF00BF0C200290022003900590C5
:1014100002A90448FEF732FF06B010BD00440040A8
:1014200000100240000801402DE9F84F04460E4626
:10143000174699464FF0000A94F8390020285AD1EF
:1014400006B117B90120BDE8F88F00BF94F8380045
:10145000012801D10220F6E7012084F8380000BFFE
:101460000020E063212084F83900FFF79DF88246D0
:10147000A784E784A068B0F5805F04D1206910B923
:101480000025B04602E035464FF0000800BF0020BE
:1014900084F8380000BF1BE053460022802120461C
:1014A000CDF8009000F04AFA08B10320CBE745B927
:1014B000B8F80000C0F308002168486008F102088D
:1014C00003E02878216848606D1CE08C401EE084B1
:1014D000E08C0028E0D15346002240212046CDF880
:1014E000009000F02BFA08B10320ACE7202084F82C
:1014F00039000020A7E70220A5E700BFFEE70000B3
:1015000000B585B00020019002900390049000BFC8
:101510002C48806940F010002A498861084680699B
:1015200000F01000009000BF00BF00BF08468069B7
:1015300040F0200088610846806900F0200000909B
:1015400000BF00BF00BF0846806940F0040088610A
:101550000846806900F00400009000BF00BF00BF93
:101560000846806940F0080088610846806900F0FC
:101570000800009000BF00BF002220211248FFF7A2
:101580000DF84FF400500190104802900020039095
:1015900001A90F48FEF772FE202001900120029061
:1015A000002003900220049001A90748FEF766FE80
:1015B000002211462820FFF77DF82820FFF76AF85F
:1015C00005B000BD001002400008014000001110ED
:1015D0000010014000B587B00020039004900590F2
:1015E0000690019002901448144908603F2048601A
:1015F0000021124881600421C16000210161802125
:101600008161FFF76FFC08B1FEF710FE4FF48050C8
:10161000039003A90948FFF716FD08B1FEF706FE7F
:1016200000200190029001A90448FFF719FC08B1BD
:10163000FEF7FCFD07B000BD0008004020000020C0
:1016400010B50B480B4908604FF4E13048600021A9
:1016500008488160C16001610C2141610021816104
:10166000C161FFF770FE08B1FEF7E0FD10BD00009C
:10167000004400406800002000BFFEE700BFFEE716
:101680007047000008B508490968C9084FF47A7224
:10169000B1FBF2F14143009100BF00BF00994A1E27
:1016A00000920029F9D108BD1C000020704710B538
:1016B000FEF780FF10BD0021017070470146D1E8A0
:1016C0004F2F012A01D1002070470123C1E8403F7C
:1016D00008B90120F8E70020F6E700B58FB028210F
:1016E00005A8FEF736FD14216846FEF732FD0120FD
:1016F00005904FF4A020069000200790012009904B
:1017000002200C90C1030D914FF4C0110E9105A859
:10171000FFF758F908B1FEF789FD0F20009002206D
:101720000190002002904FF480600390002004900C
:1017300002216846FFF710F808B1FEF777FD0FB0F9
:1017400000BD704710B50248FFF702FD10BD000054
:101750002000002010B50268184B984208D0B0F164
:10176000804F05D0164B984202D0164B984203D1B9
:1017700022F070024B681A43104B984208D0B0F127
:10178000804F05D00E4B984202D00E4B984203D1A9
:1017900022F44072CB681A4322F080034C6943EA7A
:1017A000040202608B68C3620B688362034B984239
:1017B00001D10B6903630123436110BD002C01407B
:1017C000000400400008004030B50C46816821F458
:1017D0007F4142EA032525432943816030BD0A4603
:1017E000816821F0700142F007031943816070475E
:1017F00030B50B461446026A056A25F001050562FC
:10180000816921F0F00141EA041122F00A021A4331
:101810008161026230BD30B50B461446056A25F081
:10182000100505628169026A21F4704141EA0431C0
:1018300022F0A00242EA03128161026230BD000080
:1018400070B504462168096921F44051E2681143EA
:10185000226811612269A1681143626941EA0205A7
:101860002168C96841F20C62914329432268D16022
:101870002168496921F44071A269114322685161CC
:101880002D4A2168914202D1FFF742F801E0FFF7AB
:101890002FF800EBC00101EB001162689200B1FB70
:1018A000F2F100EBC00202EB001263689B00B2FB96
:1018B000F3F26423B2FBF3F202EBC20303EB021276
:1018C000A1EB8201322202EB01116422B1FBF2F1A1
:1018D00001F0F00100EBC00202EB001263689B0014
:1018E000B2FBF3F26423B2FBF3F201EB021200EB62
:1018F000C00101EB001163689B00B1FBF3F100EB49
:10190000C00303EB00136668B600B3FBF6F364266E
:10191000B3FBF6F303EBC30606EB0313A1EB830162
:10192000322303EB01116423B1FBF3F101F00F014A
:1019300011442268916070BD003801402DE9F041EA
:1019400004460D4617469846069E21E0701CF8B1E5
:101950002EB1FEF729FEA0EB0800B04218D920688E
:10196000C06820F4D0702168C8602068406920F009
:10197000010021684861202084F8390084F83A0089
:1019800000BF002084F8380000BF0320BDE8F081CC
:10199000206800682840A84201D1012000E0002012
:1019A000B842D3D00020F1E700BFFEE70FB4084BE8
:1019B00010B504A902AA039800F038F8044602A959
:1019C000002000F049F9204610BC5DF814FB00002F
:1019D000591C000802480068C0F30220704700004C
:1019E0000CED00E010B5002804DB0A07130E054AD1
:1019F000135406E00A07140E034A00F00F031B1FDE
:101A0000D45410BD00E400E018ED00E002E008C886
:101A1000121F08C1002AFAD170477047002001E068
:101A200001C1121F002AFBD1704700002DE9FF4FB2
:101A30008BB09A460F460446002606E025280BD0B8
:101A400052460D999047641C761C20780028F5D1E9
:101A50000FB03046BDE8F08F0025A94601227D4930
:101A600000E0054314F8013F203B02FA03F008426E
:101A7000F7D120782E2817D114F8010F45F004056E
:101A80002A280ED06FF02F022078A0F1300109290A
:101A90000AD809EB890102EB410100EB0109641C42
:101AA000F2E757F8049B641C20786C280DD004DC06
:101AB0004C2812D06A2811D104E074280DD07A285D
:101AC0000CD10AE045F4001507E0617845F4801573
:101AD000814202D1641C05F58015641C20786928B8
:101AE0003ED006DC0028B3D063280BD0642804D194
:101AF00036E0732810D075285CD052460D99904777
:101B0000761CA5E017F8040B8DF8000000208DF876
:101B10000100E846012003E057F8048B4FF0FF3046
:101B200069074FF0000501D40AE06D1C4D450DDA40
:101B30008542FADB18F805100029F6D106E06D1C85
:101B40008542FCDB18F805100029F8D12E4404E08A
:101B500018F8010B52460D9990476D1EF8D277E0A8
:101B600000200A90C5F302504FF00A0B02280CD057
:101B700001CFC117021E71F100020CDA0023D0EB75
:101B8000030063EB01012D2208E0FF1D27F007078A
:101B9000F7E80201EEE72A0504D52B228DF8242070
:101BA000012203E0EA070FD02022F7E70DF1200819
:101BB000089218E000200A90C5F302504FF00A0B7B
:101BC000022803D001CF00210022EFE7FF1D27F0FC
:101BD0000707F7E80201F7E75A460A9BFEF7CBFA38
:101BE000303208F8012D50EA0102F5D1ADEB0800C2
:101BF00000F1200B680701D44FF00109D94502DD3F
:101C0000A9EB0B0000E000208146002506E009A8B2
:101C10005246405D0D9990476D1C761C0898854290
:101C2000F5DB04E0302052460D999047761CB9F15F
:101C30000001A9F10109F5DC05E018F8010B524695
:101C40000D999047761CBBF10001ABF1010BF4DC60
:101C5000641CFAE6092801000A68531C0B60107026
:101C60007047000088B0FEF7B1FCFFF736FDFFF7C4
:101C700047FCFFF7E5FCFFF7ADFC2248FFF788F9CA
:101C80003FE02148FFF71AFD002832D01F480068C6
:101C900042F2107188420AD21D480068401C1C495B
:101CA00008601A480068401C184908601EE020219E
:101CB0006846FEF74EFAFEF777FC054614482A46BA
:101CC00014A103686846FFF771FE6846FEF74CFAF8
:101CD00085B264232A4669461348FFF7A5FB1348DB
:101CE000FEF7A8FA00200A49086000BF0648FFF77F
:101CF000E2FC0A2400BF201EA4F10101CCB2FAD1FB
:101D000000BFBEE7200000200000002008000020E7
:101D100004000020256420546573745F636E743A78
:101D2000256C640D0A00000068000020002D3101C0
:101D3000000000000000000001020304060708097B
:101D40000000000001020304681D000800000020DC
:101D5000200000000C1A0008881D00082000002048
:101D6000880400001C1A000800000000204E00003B
:101D70000000000000000000000000001000000053
:081D8000010000000024F40042
:04000005080000ED02
:00000001FF
